{"abi":[{"type":"constructor","inputs":[{"name":"_tokenA","type":"address","internalType":"address"},{"name":"_tokenB","type":"address","internalType":"address"}],"stateMutability":"nonpayable"},{"type":"function","name":"addLiquidity","inputs":[{"name":"amountA","type":"uint256","internalType":"uint256"},{"name":"amountB","type":"uint256","internalType":"uint256"}],"outputs":[{"name":"liquidityMinted","type":"uint256","internalType":"uint256"}],"stateMutability":"nonpayable"},{"type":"function","name":"getAmountOut","inputs":[{"name":"amountIn","type":"uint256","internalType":"uint256"},{"name":"reserveIn","type":"uint256","internalType":"uint256"},{"name":"reserveOut","type":"uint256","internalType":"uint256"}],"outputs":[{"name":"amountOut","type":"uint256","internalType":"uint256"}],"stateMutability":"pure"},{"type":"function","name":"getPrice","inputs":[],"outputs":[{"name":"price","type":"uint256","internalType":"uint256"}],"stateMutability":"view"},{"type":"function","name":"liquidity","inputs":[{"name":"","type":"address","internalType":"address"}],"outputs":[{"name":"","type":"uint256","internalType":"uint256"}],"stateMutability":"view"},{"type":"function","name":"removeLiquidity","inputs":[{"name":"liquidityAmount","type":"uint256","internalType":"uint256"}],"outputs":[{"name":"amountA","type":"uint256","internalType":"uint256"},{"name":"amountB","type":"uint256","internalType":"uint256"}],"stateMutability":"nonpayable"},{"type":"function","name":"reserveA","inputs":[],"outputs":[{"name":"","type":"uint256","internalType":"uint256"}],"stateMutability":"view"},{"type":"function","name":"reserveB","inputs":[],"outputs":[{"name":"","type":"uint256","internalType":"uint256"}],"stateMutability":"view"},{"type":"function","name":"swapAforB","inputs":[{"name":"amountAIn","type":"uint256","internalType":"uint256"},{"name":"minAmountBOut","type":"uint256","internalType":"uint256"}],"outputs":[{"name":"amountBOut","type":"uint256","internalType":"uint256"}],"stateMutability":"nonpayable"},{"type":"function","name":"swapBforA","inputs":[{"name":"amountBIn","type":"uint256","internalType":"uint256"},{"name":"minAmountAOut","type":"uint256","internalType":"uint256"}],"outputs":[{"name":"amountAOut","type":"uint256","internalType":"uint256"}],"stateMutability":"nonpayable"},{"type":"function","name":"tokenA","inputs":[],"outputs":[{"name":"","type":"address","internalType":"contract IERC20"}],"stateMutability":"view"},{"type":"function","name":"tokenB","inputs":[],"outputs":[{"name":"","type":"address","internalType":"contract IERC20"}],"stateMutability":"view"},{"type":"function","name":"totalLiquidity","inputs":[],"outputs":[{"name":"","type":"uint256","internalType":"uint256"}],"stateMutability":"view"},{"type":"event","name":"LiquidityAdded","inputs":[{"name":"provider","type":"address","indexed":true,"internalType":"address"},{"name":"amountA","type":"uint256","indexed":false,"internalType":"uint256"},{"name":"amountB","type":"uint256","indexed":false,"internalType":"uint256"},{"name":"liquidityMinted","type":"uint256","indexed":false,"internalType":"uint256"}],"anonymous":false},{"type":"event","name":"LiquidityRemoved","inputs":[{"name":"provider","type":"address","indexed":true,"internalType":"address"},{"name":"amountA","type":"uint256","indexed":false,"internalType":"uint256"},{"name":"amountB","type":"uint256","indexed":false,"internalType":"uint256"},{"name":"liquidityBurned","type":"uint256","indexed":false,"internalType":"uint256"}],"anonymous":false},{"type":"event","name":"Swap","inputs":[{"name":"user","type":"address","indexed":true,"internalType":"address"},{"name":"tokenIn","type":"address","indexed":false,"internalType":"address"},{"name":"tokenOut","type":"address","indexed":false,"internalType":"address"},{"name":"amountIn","type":"uint256","indexed":false,"internalType":"uint256"},{"name":"amountOut","type":"uint256","indexed":false,"internalType":"uint256"}],"anonymous":false},{"type":"error","name":"ReentrancyGuardReentrantCall","inputs":[]},{"type":"error","name":"SafeERC20FailedOperation","inputs":[{"name":"token","type":"address","internalType":"address"}]}],"bytecode":{"object":"0x60c060405234801562000010575f80fd5b506040516200201f3803806200201f833981810160405281019062000036919062000265565b60015f819055505f73ffffffffffffffffffffffffffffffffffffffff168273ffffffffffffffffffffffffffffffffffffffff1603620000ae576040517f08c379a0000000000000000000000000000000000000000000000000000000008152600401620000a59062000308565b60405180910390fd5b5f73ffffffffffffffffffffffffffffffffffffffff168173ffffffffffffffffffffffffffffffffffffffff16036200011f576040517f08c379a0000000000000000000000000000000000000000000000000000000008152600401620001169062000376565b60405180910390fd5b8073ffffffffffffffffffffffffffffffffffffffff168273ffffffffffffffffffffffffffffffffffffffff160362000190576040517f08c379a00000000000000000000000000000000000000000000000000000000081526004016200018790620003e4565b60405180910390fd5b8173ffffffffffffffffffffffffffffffffffffffff1660808173ffffffffffffffffffffffffffffffffffffffff16815250508073ffffffffffffffffffffffffffffffffffffffff1660a08173ffffffffffffffffffffffffffffffffffffffff1681525050505062000404565b5f80fd5b5f73ffffffffffffffffffffffffffffffffffffffff82169050919050565b5f6200022f8262000204565b9050919050565b620002418162000223565b81146200024c575f80fd5b50565b5f815190506200025f8162000236565b92915050565b5f80604083850312156200027e576200027d62000200565b5b5f6200028d858286016200024f565b9250506020620002a0858286016200024f565b9150509250929050565b5f82825260208201905092915050565b7f496e76616c696420746f6b656e204100000000000000000000000000000000005f82015250565b5f620002f0600f83620002aa565b9150620002fd82620002ba565b602082019050919050565b5f6020820190508181035f8301526200032181620002e2565b9050919050565b7f496e76616c696420746f6b656e204200000000000000000000000000000000005f82015250565b5f6200035e600f83620002aa565b91506200036b8262000328565b602082019050919050565b5f6020820190508181035f8301526200038f8162000350565b9050919050565b7f546f6b656e73206d75737420626520646966666572656e7400000000000000005f82015250565b5f620003cc601883620002aa565b9150620003d98262000396565b602082019050919050565b5f6020820190508181035f830152620003fd81620003be565b9050919050565b60805160a051611ba56200047a5f395f81816105480152818161066d015281816106c20152818161099101528181610b2a01528181610f0401526110a601525f8181610352015281816104aa0152818161064c0152818161094601528181610a8c01528181610fa201526110c70152611ba55ff3fe608060405234801561000f575f80fd5b50600436106100b2575f3560e01c806398d5fdca1161006f57806398d5fdca1461018e5780639c8f9f23146101ac5780639cd441da146101dd578063b8c876b11461020d578063c915cc241461023d578063dc5fa6c51461026d576100b2565b8063054d50d4146100b65780630fc63d10146100e6578063140e62471461010457806315770f921461013457806319e36f3b146101525780635f64b55b14610170575b5f80fd5b6100d060048036038101906100cb9190611329565b61028b565b6040516100dd9190611388565b60405180910390f35b6100ee610350565b6040516100fb919061141b565b60405180910390f35b61011e60048036038101906101199190611434565b610374565b60405161012b9190611388565b60405180910390f35b61013c6106b4565b6040516101499190611388565b60405180910390f35b61015a6106ba565b6040516101679190611388565b60405180910390f35b6101786106c0565b604051610185919061141b565b60405180910390f35b6101966106e4565b6040516101a39190611388565b60405180910390f35b6101c660048036038101906101c19190611472565b610751565b6040516101d492919061149d565b60405180910390f35b6101f760048036038101906101f29190611434565b610a34565b6040516102049190611388565b60405180910390f35b610227600480360381019061022291906114ff565b610db9565b6040516102349190611388565b60405180910390f35b61025760048036038101906102529190611434565b610dce565b6040516102649190611388565b60405180910390f35b61027561110e565b6040516102829190611388565b60405180910390f35b5f8084116102ce576040517f08c379a00000000000000000000000000000000000000000000000000000000081526004016102c590611584565b60405180910390fd5b5f831180156102dc57505f82115b61031b576040517f08c379a0000000000000000000000000000000000000000000000000000000008152600401610312906115ec565b60405180910390fd5b5f82856103289190611637565b90505f85856103379190611678565b9050808261034591906116d8565b925050509392505050565b7f000000000000000000000000000000000000000000000000000000000000000081565b5f61037d611114565b5f83116103bf576040517f08c379a00000000000000000000000000000000000000000000000000000000081526004016103b690611752565b60405180910390fd5b5f6001541180156103d157505f600254115b610410576040517f08c379a0000000000000000000000000000000000000000000000000000000008152600401610407906115ec565b60405180910390fd5b61041f8360015460025461028b565b905081811015610464576040517f08c379a000000000000000000000000000000000000000000000000000000000815260040161045b906117ba565b60405180910390fd5b60025481106104a8576040517f08c379a000000000000000000000000000000000000000000000000000000000815260040161049f90611822565b60405180910390fd5b7f000000000000000000000000000000000000000000000000000000000000000073ffffffffffffffffffffffffffffffffffffffff166323b872dd3330866040518463ffffffff1660e01b81526004016105059392919061184f565b6020604051808303815f875af1158015610521573d5f803e3d5ffd5b505050506040513d601f19601f8201168201806040525081019061054591906118b9565b507f000000000000000000000000000000000000000000000000000000000000000073ffffffffffffffffffffffffffffffffffffffff1663a9059cbb33836040518363ffffffff1660e01b81526004016105a19291906118e4565b6020604051808303815f875af11580156105bd573d5f803e3d5ffd5b505050506040513d601f19601f820116820180604052508101906105e191906118b9565b508260015f8282546105f39190611678565b925050819055508060025f82825461060b919061190b565b925050819055503373ffffffffffffffffffffffffffffffffffffffff167fcd3829a3813dc3cdd188fd3d01dcf3268c16be2fdd2dd21d0665418816e460627f00000000000000000000000000000000000000000000000000000000000000007f0000000000000000000000000000000000000000000000000000000000000000868560405161069e949392919061193e565b60405180910390a26106ae611158565b92915050565b60035481565b60025481565b7f000000000000000000000000000000000000000000000000000000000000000081565b5f8060015411610729576040517f08c379a0000000000000000000000000000000000000000000000000000000008152600401610720906119cb565b60405180910390fd5b600154670de0b6b3a76400006002546107429190611637565b61074c91906116d8565b905090565b5f8061075b611114565b5f831161079d576040517f08c379a000000000000000000000000000000000000000000000000000000000815260040161079490611752565b60405180910390fd5b8260045f3373ffffffffffffffffffffffffffffffffffffffff1673ffffffffffffffffffffffffffffffffffffffff1681526020019081526020015f2054101561081d576040517f08c379a0000000000000000000000000000000000000000000000000000000008152600401610814906115ec565b60405180910390fd5b6003546001548461082e9190611637565b61083891906116d8565b91506003546002548461084b9190611637565b61085591906116d8565b90505f8211801561086557505f81115b6108a4576040517f08c379a000000000000000000000000000000000000000000000000000000000815260040161089b90611a33565b60405180910390fd5b8260045f3373ffffffffffffffffffffffffffffffffffffffff1673ffffffffffffffffffffffffffffffffffffffff1681526020019081526020015f205f8282546108f0919061190b565b925050819055508260035f828254610908919061190b565b925050819055508160015f828254610920919061190b565b925050819055508060025f828254610938919061190b565b9250508190555061098a33837f000000000000000000000000000000000000000000000000000000000000000073ffffffffffffffffffffffffffffffffffffffff166111619092919063ffffffff16565b6109d533827f000000000000000000000000000000000000000000000000000000000000000073ffffffffffffffffffffffffffffffffffffffff166111619092919063ffffffff16565b3373ffffffffffffffffffffffffffffffffffffffff167f1dc8bb69df2b8e91fbdcbfcf93d951b3f0000f085a95fe3f7946d6161439245d838386604051610a1f93929190611a51565b60405180910390a2610a2f611158565b915091565b5f610a3d611114565b5f83118015610a4b57505f82115b610a8a576040517f08c379a0000000000000000000000000000000000000000000000000000000008152600401610a8190611ad0565b60405180910390fd5b7f000000000000000000000000000000000000000000000000000000000000000073ffffffffffffffffffffffffffffffffffffffff166323b872dd3330866040518463ffffffff1660e01b8152600401610ae79392919061184f565b6020604051808303815f875af1158015610b03573d5f803e3d5ffd5b505050506040513d601f19601f82011682018060405250810190610b2791906118b9565b507f000000000000000000000000000000000000000000000000000000000000000073ffffffffffffffffffffffffffffffffffffffff166323b872dd3330856040518463ffffffff1660e01b8152600401610b859392919061184f565b6020604051808303815f875af1158015610ba1573d5f803e3d5ffd5b505050506040513d601f19601f82011682018060405250810190610bc591906118b9565b505f60035403610c2c57610be38284610bde9190611637565b6111e0565b90505f8111610c27576040517f08c379a0000000000000000000000000000000000000000000000000000000008152600401610c1e90611b38565b60405180910390fd5b610c7c565b5f60015460035485610c3e9190611637565b610c4891906116d8565b90505f60025460035485610c5c9190611637565b610c6691906116d8565b9050808210610c755780610c77565b815b925050505b5f8111610cbe576040517f08c379a0000000000000000000000000000000000000000000000000000000008152600401610cb590611b38565b60405180910390fd5b8060045f3373ffffffffffffffffffffffffffffffffffffffff1673ffffffffffffffffffffffffffffffffffffffff1681526020019081526020015f205f828254610d0a9190611678565b925050819055508060035f828254610d229190611678565b925050819055508260015f828254610d3a9190611678565b925050819055508160025f828254610d529190611678565b925050819055503373ffffffffffffffffffffffffffffffffffffffff167f64b83944e79c3ce8d4c297411de637c3e102d064677aac0c163976ebdcd6f50e848484604051610da393929190611a51565b60405180910390a2610db3611158565b92915050565b6004602052805f5260405f205f915090505481565b5f610dd7611114565b5f8311610e19576040517f08c379a0000000000000000000000000000000000000000000000000000000008152600401610e1090611752565b60405180910390fd5b5f600154118015610e2b57505f600254115b610e6a576040517f08c379a0000000000000000000000000000000000000000000000000000000008152600401610e61906115ec565b60405180910390fd5b610e798360025460015461028b565b905081811015610ebe576040517f08c379a0000000000000000000000000000000000000000000000000000000008152600401610eb5906117ba565b60405180910390fd5b6001548110610f02576040517f08c379a0000000000000000000000000000000000000000000000000000000008152600401610ef990611822565b60405180910390fd5b7f000000000000000000000000000000000000000000000000000000000000000073ffffffffffffffffffffffffffffffffffffffff166323b872dd3330866040518463ffffffff1660e01b8152600401610f5f9392919061184f565b6020604051808303815f875af1158015610f7b573d5f803e3d5ffd5b505050506040513d601f19601f82011682018060405250810190610f9f91906118b9565b507f000000000000000000000000000000000000000000000000000000000000000073ffffffffffffffffffffffffffffffffffffffff1663a9059cbb33836040518363ffffffff1660e01b8152600401610ffb9291906118e4565b6020604051808303815f875af1158015611017573d5f803e3d5ffd5b505050506040513d601f19601f8201168201806040525081019061103b91906118b9565b508260025f82825461104d9190611678565b925050819055508060015f828254611065919061190b565b925050819055503373ffffffffffffffffffffffffffffffffffffffff167fcd3829a3813dc3cdd188fd3d01dcf3268c16be2fdd2dd21d0665418816e460627f00000000000000000000000000000000000000000000000000000000000000007f000000000000000000000000000000000000000000000000000000000000000086856040516110f8949392919061193e565b60405180910390a2611108611158565b92915050565b60015481565b60025f540361114f576040517f3ee5aeb500000000000000000000000000000000000000000000000000000000815260040160405180910390fd5b60025f81905550565b60015f81905550565b6111db838473ffffffffffffffffffffffffffffffffffffffff1663a9059cbb85856040516024016111949291906118e4565b604051602081830303815290604052915060e01b6020820180517bffffffffffffffffffffffffffffffffffffffffffffffffffffffff8381831617835250505050611257565b505050565b5f6003821115611245578190505f60016002846111fd91906116d8565b6112079190611678565b90505b8181101561123f57809150600281828561122491906116d8565b61122e9190611678565b61123891906116d8565b905061120a565b50611252565b5f821461125157600190505b5b919050565b5f8060205f8451602086015f885af180611276576040513d5f823e3d81fd5b3d92505f519150505f821461128f5760018114156112aa565b5f8473ffffffffffffffffffffffffffffffffffffffff163b145b156112ec57836040517f5274afe70000000000000000000000000000000000000000000000000000000081526004016112e39190611b56565b60405180910390fd5b50505050565b5f80fd5b5f819050919050565b611308816112f6565b8114611312575f80fd5b50565b5f81359050611323816112ff565b92915050565b5f805f606084860312156113405761133f6112f2565b5b5f61134d86828701611315565b935050602061135e86828701611315565b925050604061136f86828701611315565b9150509250925092565b611382816112f6565b82525050565b5f60208201905061139b5f830184611379565b92915050565b5f73ffffffffffffffffffffffffffffffffffffffff82169050919050565b5f819050919050565b5f6113e36113de6113d9846113a1565b6113c0565b6113a1565b9050919050565b5f6113f4826113c9565b9050919050565b5f611405826113ea565b9050919050565b611415816113fb565b82525050565b5f60208201905061142e5f83018461140c565b92915050565b5f806040838503121561144a576114496112f2565b5b5f61145785828601611315565b925050602061146885828601611315565b9150509250929050565b5f60208284031215611487576114866112f2565b5b5f61149484828501611315565b91505092915050565b5f6040820190506114b05f830185611379565b6114bd6020830184611379565b9392505050565b5f6114ce826113a1565b9050919050565b6114de816114c4565b81146114e8575f80fd5b50565b5f813590506114f9816114d5565b92915050565b5f60208284031215611514576115136112f2565b5b5f611521848285016114eb565b91505092915050565b5f82825260208201905092915050565b7f496e73756666696369656e7420696e70757420616d6f756e74000000000000005f82015250565b5f61156e60198361152a565b91506115798261153a565b602082019050919050565b5f6020820190508181035f83015261159b81611562565b9050919050565b7f496e73756666696369656e74206c6971756964697479000000000000000000005f82015250565b5f6115d660168361152a565b91506115e1826115a2565b602082019050919050565b5f6020820190508181035f830152611603816115ca565b9050919050565b7f4e487b71000000000000000000000000000000000000000000000000000000005f52601160045260245ffd5b5f611641826112f6565b915061164c836112f6565b925082820261165a816112f6565b915082820484148315176116715761167061160a565b5b5092915050565b5f611682826112f6565b915061168d836112f6565b92508282019050808211156116a5576116a461160a565b5b92915050565b7f4e487b71000000000000000000000000000000000000000000000000000000005f52601260045260245ffd5b5f6116e2826112f6565b91506116ed836112f6565b9250826116fd576116fc6116ab565b5b828204905092915050565b7f416d6f756e74206d7573742062652067726561746572207468616e20300000005f82015250565b5f61173c601d8361152a565b915061174782611708565b602082019050919050565b5f6020820190508181035f83015261176981611730565b9050919050565b7f536c69707061676520746f6f20686967680000000000000000000000000000005f82015250565b5f6117a460118361152a565b91506117af82611770565b602082019050919050565b5f6020820190508181035f8301526117d181611798565b9050919050565b7f496e73756666696369656e74206c697175696469747920666f722073776170005f82015250565b5f61180c601f8361152a565b9150611817826117d8565b602082019050919050565b5f6020820190508181035f83015261183981611800565b9050919050565b611849816114c4565b82525050565b5f6060820190506118625f830186611840565b61186f6020830185611840565b61187c6040830184611379565b949350505050565b5f8115159050919050565b61189881611884565b81146118a2575f80fd5b50565b5f815190506118b38161188f565b92915050565b5f602082840312156118ce576118cd6112f2565b5b5f6118db848285016118a5565b91505092915050565b5f6040820190506118f75f830185611840565b6119046020830184611379565b9392505050565b5f611915826112f6565b9150611920836112f6565b92508282039050818111156119385761193761160a565b5b92915050565b5f6080820190506119515f830187611840565b61195e6020830186611840565b61196b6040830185611379565b6119786060830184611379565b95945050505050565b7f4e6f206c697175696469747900000000000000000000000000000000000000005f82015250565b5f6119b5600c8361152a565b91506119c082611981565b602082019050919050565b5f6020820190508181035f8301526119e2816119a9565b9050919050565b7f496e73756666696369656e74206c6971756964697479206275726e65640000005f82015250565b5f611a1d601d8361152a565b9150611a28826119e9565b602082019050919050565b5f6020820190508181035f830152611a4a81611a11565b9050919050565b5f606082019050611a645f830186611379565b611a716020830185611379565b611a7e6040830184611379565b949350505050565b7f416d6f756e7473206d7573742062652067726561746572207468616e203000005f82015250565b5f611aba601e8361152a565b9150611ac582611a86565b602082019050919050565b5f6020820190508181035f830152611ae781611aae565b9050919050565b7f496e73756666696369656e74206c6971756964697479206d696e7465640000005f82015250565b5f611b22601d8361152a565b9150611b2d82611aee565b602082019050919050565b5f6020820190508181035f830152611b4f81611b16565b9050919050565b5f602082019050611b695f830184611840565b9291505056fea2646970667358221220af2458175db83f2565b351225a821e9400e0bc3bb4d9109d39bbb5a0fb556d1964736f6c63430008170033","linkReferences":{}},"methodIdentifiers":{"addLiquidity(uint256,uint256)":"9cd441da","getAmountOut(uint256,uint256,uint256)":"054d50d4","getPrice()":"98d5fdca","liquidity(address)":"b8c876b1","removeLiquidity(uint256)":"9c8f9f23","reserveA()":"dc5fa6c5","reserveB()":"19e36f3b","swapAforB(uint256,uint256)":"140e6247","swapBforA(uint256,uint256)":"c915cc24","tokenA()":"0fc63d10","tokenB()":"5f64b55b","totalLiquidity()":"15770f92"},"id":31}